:100000000C9438000C9468010C9468010C946801FD
:100010000C9468010C9468010C9468010C946801BC
:100020000C9468010C9468010C9468010C946801AC
:100030000C9468010C9468010C9468010C9468019C
:100040000C9468010C9468010C9468010C9468018C
:100050000C9468010C9468010C9468010C9468017C
:100060000C9468010C946801010001010002D400A5
:1000700011241FBECFEFD8E0DEBFCDBFE8E6F0E031
:1000800040E017C0B591A59135912591059107FDE7
:100090000CC095918591EF01F92FE82F05900D92F5
:1000A000A217B307D9F7FE0104C01D92A217B30728
:1000B000E1F7EF36F40731F70E94E3000C9460009B
:0400C000F894FFCFE2
:1000C40093B124B18FE0282724B925B1282725B975
:1000D40027B1282727B928B1822788B9EFE0F7E2AA
:1000E4003197F1F700C0000086B18295807F892B9B
:1000F4008E3E21F481E40E942B0108958E3D21F46B
:1001040082E40E942B0108958E3B69F483E40E94EB
:100114002B01FFEF22E587E0F15020408040E1F71A
:1001240000C0000008958E3721F484E40E942B015E
:1001340008958D3E21F485E40E942B0108958D3DA0
:1001440021F486E40E942B0108958D3B21F487E479
:100154000E942B0108958D3721F488E40E942B011D
:1001640008958B3E21F489E40E942B0108958B3D70
:1001740021F48AE40E942B0108958B3B21F48BE443
:100184000E942B0108958B3721F48CE40E942B01EB
:100194000895873E21F48DE40E942B010895873D44
:1001A40021F48EE40E942B010895873B21F48FE40F
:1001B4000E942B010895873719F480E50E942B01D2
:0201C40008959C
:1001C60087E690E00E944D010E946101559A579A78
:1001D60052985A9A84B18F6084B985B1807F85B967
:1001E60087B1807F87B988B18F6088B912E3D4E67A
:1001F600CFEF0E9462004A9924C0809100018230AC
:1002060059F018F4813031F00EC0833039F0843063
:1002160039F009C018BC07C018BD05C0D8BD03C059
:10022600C8BD10920001809100018F5F809300018C
:100236002FEF82E597E0215080409040E1F700C023
:10024600000086B18F7011F05E9AD3CF5E98D1CF41
:100256005F9A2FE738E391E0215030409040E1F774
:1002660000C00000E0ECF0E0908195FFFDCF8093A8
:10027600C6002FEF32E587E0215030408040E1F79D
:1002860000C000005F988FE19EE40197F1F700C07F
:0402960000000895C7
:10029A009093C5008093C400E0ECF0E08081826016
:1002AA008083E1ECF0E0808188618083E2ECF0E019
:0802BA008081866080830895B5
:0E02C20084B5836284BD85B5836085BD0895D3
:0402D0000C9400008A
:0102D4000128
:00000001FF
