:100000000C9440000C94EB020C94EB020C94EB0269
:100010000C94EB020C94EB020C94EB020C94EB02AC
:100020000C94EB020C94EB020C94EB020C94EB029C
:100030000C94EB020C94EB020C94EB020C94EB028C
:100040000C94EB020C94EB020C946A000C94EB02FF
:100050000C94EB020C94EB020C94EB020C94EB026C
:100060000C94EB020C94EB0201000153800153014C
:100070006B0005DA016B017180017101720005F2FC
:1000800011241FBECFEFD8E0DEBFCDBFE8E6F0E021
:1000900040E017C0B591A59135912591059107FDD7
:1000A0000CC095918591EF01F92FE82F05900D92E5
:1000B000A217B307D9F7FE0104C01D92A217B30718
:1000C000E1F7E038F40731F70E947A020C946800F7
:0400D000F894FFCFD2
:1000D4001F920F920FB60F9211242F933F934F93B9
:1000E4005F936F937F938F939F93AF93BF93CF93BC
:1000F400EF93FF938091C6008D3309F0A8C010924E
:100104003E0110923D010E94D402C82FE0913D01AE
:10011400F0913E01E15CFE4F808380917001C81331
:1001240037C080E20E94DC0210923E0110923D0131
:1001340080E090E0FC01EA59FE4F80810E94DC02DD
:1001440080913D0190913E01019690933E018093F0
:100154003D018530910570F38C2F0E94DC021092D2
:100164003E0110923D0180E090E0FC01E35AFE4F15
:1001740080810E94DC0280913D0190913E010196B4
:1001840090933E0180933D018930910570F336C010
:1001940080E20E94DC0210923E0110923D0180E058
:1001A40090E0FC01EA59FE4F80810E94DC028091BC
:1001B4003D0190913E01019690933E0180933D0153
:1001C4008530910570F38C2F0E94DC0210923E0161
:1001D40010923D0180E090E0FC01ED5AFE4F8081D9
:1001E4000E94DC0280913D0190913E010196909322
:1001F4003E0180933D018A30910570F380913D0169
:1002040090913E01019690933E0180933D010A979F
:1002140008F479CF1EC0880F991FFC01E050FF4FEE
:1002240080810E94DC0280913D0190913E01019603
:1002340090933E0180933D018232910560F309C0A1
:1002440010923E0110923D0180E090E0E4CF8F33A4
:10025400B9F3FF91EF91CF91BF91AF919F918F919E
:100264007F916F915F914F913F912F910F900FBEAE
:060274000F901F90189589
:10027A0093B124B18FE0282724B925B1282725B9BD
:10028A0027B1282727B928B1822788B9EFE0F7E2F2
:10029A003197F1F700C0000086B18295807F892BE3
:1002AA008E3E41F481E48093700180936F010E9435
:1002BA00C30208958E3D41F482E4809370018093D5
:1002CA006F010E94C30208958E3B41F483E4809338
:1002DA00700180936F010E94C30208958E3741F422
:1002EA0084E48093700180936F010E94C302089591
:1002FA008D3E41F485E48093700180936F010E94E2
:10030A00C30208958D3D41F486E480937001809381
:10031A006F010E94C30208958D3B41F487E48093E4
:10032A00700180936F010E94C30208958D3741F4D2
:10033A0088E48093700180936F010E94C30208953C
:10034A008B3E41F489E48093700180936F010E948F
:10035A00C30208958B3D41F48AE48093700180932F
:10036A006F010E94C30208958B3B41F48BE4809392
:10037A00700180936F010E94C30208958B3741F484
:10038A008CE48093700180936F010E94C3020895E8
:10039A00873E41F48DE48093700180936F010E943F
:1003AA00C3020895873D41F48EE4809370018093DF
:1003BA006F010E94C3020895873B41F48FE4809342
:1003CA00700180936F010E94C3020895873739F440
:1003DA0080E58093700180936F010E94C3020895A3
:1003EA00CF93C82F80916D0190916E01009741F4CF
:1003FA0080916B0190916C018031910559F509C08A
:10040A0020916B0130916C012F5F3F4F8217930748
:10041A0011F40E945E0280916D0190916E01019625
:10042A0029F410926C0110926B0117C020916B0194
:10043A0030916C01F901EE0FFF1FE050FF4F8C2F36
:10044A0090E0918380832F5F3F4F30936C0120931C
:0E045A006B0103C0019651F7DCCFCF910895DE
:100468004A9927C080917101823059F018F481307F
:1004780031F011C0833041F0843049F00CC018BC11
:100488000AC082E388BD07C084E688BD04C08FEF38
:1004980088BD10927101809171018F5F8093710105
:1004A8002FEF82E597E0215080409040E1F700C0AF
:0404B80000000895A3
:1004BC0020916B0130916C01A90141505109141626
:1004CC0015066CF4E0E0F1E0220F331F22503F4F91
:1004DC008281938181939193E217F307C9F750932B
:0804EC006C0140936B010895BF
:1004F40087E690E00E94AF020E94E4027894559A45
:10050400569A52985A9A84B18F6084B985B1807F83
:1005140085B987B1807F87B988B18F6088B90E9417
:0805240034020E943D01FBCFEF
:10052C0084B5836884BD85B5836085BD8FEF87BD39
:10053C002FEF81EE94E0215080409040E1F700C015
:10054C00000017BC8FE59AEE0197F1F700C0000090
:02055C00089500
:10055E009093C5008093C400E0ECF0E0808182604F
:10056E008083E1ECF0E0808188698083E2ECF0E04A
:08057E008081866080830895EE
:10058600CF93C82F0E94DC020E9496028C2F0E94F5
:10059600F5018FE59AEE0197F1F700C00000CF91C3
:0205A6000895B6
:1005A800E0ECF0E080818823ECF78091C6000895A4
:1005B800E0ECF0E0908195FFFDCF8093C6000895B0
:0E05C80084B5836284BD85B5836085BD0895CA
:0405D6000C94000081
:0A05DA00203A2046414C5545200D03
:0905E400203A2054525545200D27
:0505ED0072656164204D
:0105F2000107
:00000001FF
