:100000000C9438000C94CE010C94CE010C94CE01CB
:100010000C94CE010C94CE010C94CE010C94CE0124
:100020000C94CE010C94CE010C94CE010C94CE0114
:100030000C94CE010C94CE010C94CE010C94CE0104
:100040000C94CE010C94CE010C94CE010C94CE01F4
:100050000C94CE010C94CE010C94CE010C94CE01E4
:100060000C94CE010C94CE01010001010003A0000C
:1000700011241FBECFEFD8E0DEBFCDBFE8E6F0E031
:1000800040E017C0B591A59135912591059107FDE7
:100090000CC095918591EF01F92FE82F05900D92F5
:1000A000A217B307D9F7FE0104C01D92A217B30728
:1000B000E1F7EF36F40731F70E946A010C94600013
:0400C000F894FFCFE2
:1000C40093B124B18FE0282724B925B1282725B975
:1000D40027B1282727B928B1822788B9EFE0F7E2AA
:1000E4003197F1F700C0000086B18295807F892B9B
:1000F4008E3E69F481E40E94BF01FFEF22E587E0B0
:10010400F15020408040E1F700C0000008958E3D8A
:1001140069F482E40E94BF019FEFE2E5F7E09150A9
:10012400E040F040E1F700C0000008958E3B69F420
:1001340083E40E94BF012FEF82E597E021508040C5
:100144009040E1F700C0000008958E3769F484E41C
:100154000E94BF01EFEFF2E527E0E150F0402040BC
:10016400E1F700C0000008958D3E69F485E40E9423
:10017400BF018FEF92E5E7E081509040E040E1F766
:1001840000C0000008958D3D69F486E40E94BF011B
:10019400FFEF22E587E0F15020408040E1F700C006
:1001A400000008958D3B69F487E40E94BF019FEF2E
:1001B400E2E5F7E09150E040F040E1F700C00000D4
:1001C40008958D3769F488E40E94BF012FEF82E51A
:1001D40097E0215080409040E1F700C0000008956E
:1001E4008B3E69F489E40E94BF01EFEFF2E527E05A
:1001F400E150F0402040E1F700C0000008958B3D3D
:1002040069F48AE40E94BF018FEF92E5E7E0815030
:100214009040E040E1F700C0000008958B3B69F492
:100224008BE40E94BF01FFEF22E587E0F1502040FC
:100234008040E1F700C0000008958B3769F48CE436
:100244000E94BF019FEFE2E5F7E09150E040F040EB
:10025400E1F700C000000895873E69F48DE40E9430
:10026400BF012FEF82E597E0215080409040E1F7F5
:1002740000C000000895873D69F48EE40E94BF0128
:10028400EFEFF2E527E0E150F0402040E1F700C055
:1002940000000895873B69F48FE40E94BF018FEF4B
:1002A40092E5E7E081509040E040E1F700C00000B3
:1002B4000895873761F480E50E94BF01FFEF22E5CE
:1002C40087E0F15020408040E1F700C0000008952D
:1002D40087E690E00E94AB010E94C701559A5298AC
:1002E4005A9A84B18F6084B985B1807F85B987B10A
:1002F400807F87B988B18F6088B912E3D4E6CFEFE5
:100304000E9462004A99FCCF80910001823059F02A
:1003140018F4813031F00EC0833039F0843039F074
:1003240009C018BC07C018BD05C0D8BD03C0C8BDEE
:1003340010920001809100018F5F809300012FEFE4
:1003440082E597E0215080409040E1F700C0000032
:02035400D7CF01
:100356009093C5008093C400E0ECF0E08081826059
:100366008083E1ECF0E0808188618083E2ECF0E05C
:080376008081866080830895F8
:10037E00E0ECF0E0908195FFFDCF8093C6000895EC
:0E038E0084B5836284BD85B5836085BD089506
:04039C000C940000BD
:0103A000015B
:00000001FF
